8=FIX.4.2|9=67|35=A|34=1|49=server|52=20191117-10:12:49.604|56=client|98=0|108=30|10=024|8=FIX.4.2|9=129|35=8|34=2|49=server|52=20191117-10:12:50.554|56=client|6=0|11=342|14=0|17=0|20=0|37=342|38=100|39=0|54=1|55=6758.T|150=0|151=100|10=019|8=FIX.4.2|9=125|35=8|34=3|49=server|52=20191117-10:12:50.557|56=client|6=0|11=342|14=0|17=1|20=0|37=342|38=5|39=0|54=2|55=6758.T|150=0|151=5|10=093|8=FIX.4.2|9=135|35=8|34=4|49=server|52=20191117-10:12:50.560|56=client|6=0|11=342|14=5|17=2|20=0|31=0|32=5|37=342|38=5|39=2|54=2|55=6758.T|150=2|151=0|10=008|8=FIX.4.2|9=138|35=8|34=5|49=server|52=20191117-10:12:50.562|56=client|6=0|11=342|14=5|17=3|20=0|31=0|32=5|37=342|38=100|39=1|54=1|55=6758.T|150=1|151=95|10=166|8=FIX.4.2|9=55|35=0|34=6|49=server|52=20191117-10:13:20.936|56=client|10=238|8=FIX.4.2|9=55|35=0|34=7|49=server|52=20191117-10:13:50.936|56=client|10=242|8=FIX.4.2|9=55|35=0|34=8|49=server|52=20191117-10:14:20.936|56=client|10=241|8=FIX.4.2|9=55|35=0|34=9|49=server|52=20191117-10:14:50.936|56=client|10=245|8=FIX.4.2|9=68|35=A|34=10|49=server|52=20191117-10:25:52.152|56=client|98=0|108=30|10=069|8=FIX.4.2|9=130|35=8|34=11|49=server|52=20191117-10:25:52.197|56=client|6=0|11=342|14=0|17=0|20=0|37=342|38=100|39=0|54=1|55=6758.T|150=0|151=100|10=068|8=FIX.4.2|9=126|35=8|34=12|49=server|52=20191117-10:25:52.203|56=client|6=0|11=342|14=0|17=1|20=0|37=342|38=5|39=0|54=2|55=6758.T|150=0|151=5|10=136|8=FIX.4.2|9=136|35=8|34=13|49=server|52=20191117-10:25:52.207|56=client|6=0|11=342|14=5|17=2|20=0|31=0|32=5|37=342|38=5|39=2|54=2|55=6758.T|150=2|151=0|10=061|8=FIX.4.2|9=139|35=8|34=14|49=server|52=20191117-10:25:52.209|56=client|6=0|11=342|14=5|17=3|20=0|31=0|32=5|37=342|38=100|39=1|54=1|55=6758.T|150=1|151=95|10=219|8=FIX.4.2|9=56|35=0|34=15|49=server|52=20191117-10:26:22.305|56=client|10=027|8=FIX.4.2|9=56|35=0|34=16|49=server|52=20191117-10:26:52.300|56=client|10=026|8=FIX.4.2|9=56|35=0|34=17|49=server|52=20191117-10:27:22.299|56=client|10=042|8=FIX.4.2|9=56|35=0|34=18|49=server|52=20191117-10:27:52.299|56=client|10=046|8=FIX.4.2|9=56|35=0|34=19|49=server|52=20191117-10:28:22.299|56=client|10=045|8=FIX.4.2|9=56|35=0|34=20|49=server|52=20191117-10:28:52.299|56=client|10=040|8=FIX.4.2|9=56|35=0|34=21|49=server|52=20191117-10:29:22.303|56=client|10=025|8=FIX.4.2|9=68|35=A|34=22|49=server|52=20191117-10:30:21.073|56=client|98=0|108=30|10=066|8=FIX.4.2|9=68|35=A|34=23|49=server|52=20191117-10:30:53.712|56=client|98=0|108=30|10=072|8=FIX.4.2|9=130|35=8|34=24|49=server|52=20191117-10:30:54.722|56=client|6=0|11=342|14=0|17=0|20=0|37=342|38=100|39=0|54=1|55=6758.T|150=0|151=100|10=064|8=FIX.4.2|9=126|35=8|34=25|49=server|52=20191117-10:30:54.725|56=client|6=0|11=342|14=0|17=1|20=0|37=342|38=5|39=0|54=2|55=6758.T|150=0|151=5|10=147|8=FIX.4.2|9=136|35=8|34=26|49=server|52=20191117-10:30:54.728|56=client|6=0|11=342|14=5|17=2|20=0|31=0|32=5|37=342|38=5|39=2|54=2|55=6758.T|150=2|151=0|10=071|8=FIX.4.2|9=139|35=8|34=27|49=server|52=20191117-10:30:54.730|56=client|6=0|11=342|14=5|17=3|20=0|31=0|32=5|37=342|38=100|39=1|54=1|55=6758.T|150=1|151=95|10=220|8=FIX.4.2|9=56|35=0|34=28|49=server|52=20191117-10:31:25.385|56=client|10=038|8=FIX.4.2|9=56|35=0|34=29|49=server|52=20191117-10:31:55.386|56=client|10=043|8=FIX.4.2|9=56|35=0|34=30|49=server|52=20191117-10:32:25.385|56=client|10=032|8=FIX.4.2|9=56|35=5|34=31|49=server|52=20191117-10:32:39.384|56=client|10=042|