8=FIX.4.2|9=67|35=A|34=1|49=client|52=20191117-10:12:49.544|56=server|98=0|108=30|10=027|8=FIX.4.2|9=94|35=D|34=2|49=client|52=20191117-10:12:50.536|56=server|11=342|21=1|38=100|40=1|54=1|55=6758.T|10=243|8=FIX.4.2|9=92|35=D|34=3|49=client|52=20191117-10:12:50.538|56=server|11=342|21=1|38=5|40=1|54=2|55=6758.T|10=153|8=FIX.4.2|9=55|35=0|34=4|49=client|52=20191117-10:13:20.531|56=server|10=227|8=FIX.4.2|9=55|35=0|34=5|49=client|52=20191117-10:13:50.529|56=server|10=238|8=FIX.4.2|9=55|35=0|34=6|49=client|52=20191117-10:14:20.529|56=server|10=237|8=FIX.4.2|9=55|35=0|34=7|49=client|52=20191117-10:14:50.524|56=server|10=236|8=FIX.4.2|9=67|35=A|34=8|49=client|52=20191117-10:25:52.054|56=server|98=0|108=30|10=028|8=FIX.4.2|9=94|35=D|34=9|49=client|52=20191117-10:25:52.178|56=server|11=342|21=1|38=100|40=1|54=1|55=6758.T|10=002|8=FIX.4.2|9=93|35=D|34=10|49=client|52=20191117-10:25:52.181|56=server|11=342|21=1|38=5|40=1|54=2|55=6758.T|10=200|8=FIX.4.2|9=56|35=0|34=11|49=client|52=20191117-10:26:22.313|56=server|10=022|8=FIX.4.2|9=56|35=0|34=12|49=client|52=20191117-10:26:53.050|56=server|10=025|8=FIX.4.2|9=56|35=0|34=13|49=client|52=20191117-10:27:23.051|56=server|10=025|8=FIX.4.2|9=56|35=0|34=14|49=client|52=20191117-10:27:53.050|56=server|10=028|8=FIX.4.2|9=56|35=0|34=15|49=client|52=20191117-10:28:23.050|56=server|10=027|8=FIX.4.2|9=56|35=0|34=16|49=client|52=20191117-10:28:53.050|56=server|10=031|8=FIX.4.2|9=56|35=0|34=17|49=client|52=20191117-10:29:23.050|56=server|10=030|8=FIX.4.2|9=68|35=A|34=18|49=client|52=20191117-10:30:21.049|56=server|98=0|108=30|10=074|8=FIX.4.2|9=68|35=A|34=19|49=client|52=20191117-10:30:53.695|56=server|98=0|108=30|10=087|8=FIX.4.2|9=95|35=D|34=20|49=client|52=20191117-10:30:54.705|56=server|11=342|21=1|38=100|40=1|54=1|55=6758.T|10=038|8=FIX.4.2|9=93|35=D|34=21|49=client|52=20191117-10:30:54.708|56=server|11=342|21=1|38=5|40=1|54=2|55=6758.T|10=205|8=FIX.4.2|9=56|35=0|34=22|49=client|52=20191117-10:31:25.387|56=server|10=034|8=FIX.4.2|9=56|35=0|34=23|49=client|52=20191117-10:31:55.388|56=server|10=039|8=FIX.4.2|9=56|35=0|34=24|49=client|52=20191117-10:32:25.386|56=server|10=036|8=FIX.4.2|9=56|35=5|34=25|49=client|52=20191117-10:32:39.387|56=server|10=048|